:100000000C942A000C9416040C943F040C9468047D
:100010000C9447000C9447000C9447000C94470044
:100020000C9447000C9447000C9447000C94470034
:100030000C9447000C94CE040C9447000C94F704E5
:100040000C9447000C9447000C9447000C94470014
:100050000C94470011241FBECFE5D8E0DEBFCDBF12
:1000600010E0A0E6B0E0E4E4FAE002C005900D92F2
:10007000A43BB107D9F720E0A4EBB0E001C01D928A
:10008000A23DB207E1F70E9434020C9420050C94C3
:10009000000081E08093B7000895E091B900F091ED
:1000A000BA002685211102C00E94B604089584EB8F
:1000B00090E00E944D0081E08093B60087E080933D
:1000C000BD000895E9EBF0E09183808314821382F0
:1000D0001282FC018785811104C081E08093B70002
:1000E00008951092B7000895CF93DF938091B800E0
:1000F000811108C0E091B900F091BA008785813084
:1001000009F446C08091B6008130A1F58091BD0010
:10011000873071F5E9EBF0E0828193810190F08105
:10012000E02D20813181215031098217930770F42D
:100130000280F381E02DE80FF91F2091B4002083A5
:1001400001969093BC008093BB0012C0A9EBB0E075
:1001500028E014962C93149722813381F901E80F3B
:10016000F91F2091B400208313961C921E921297BF
:100170001092B6008091BD00883051F4C9EBD0E0F8
:10018000E881F9810484F585E02D099589E08C8367
:10019000DF91CF9108959093CB008093CA0008958A
:1001A0001F93CF93DF93EC01E091B900F091BA0077
:1001B000828193810E94CB00209759F18881882306
:1001C00019F0833040F528C00E9491048981811183
:1001D00008C00E94C00489E490E00E94C90411E0B4
:1001E0001BC0813041F40E94BC0487E590E00E946E
:1001F000C40411E011C00E94C00489E490E00E9490
:10020000C9040E94BC0487E590E00E94C40411E088
:1002100003C010E001C010E081E08093B800812F9E
:10022000DF91CF911F910895CF93C82F60E081E0B7
:100230000E9481036C2F661F6627661F87E00E945D
:100240008103C6FB662760F986E00E948103C5FB37
:10025000662760F985E00E948103C4FB662760F988
:1002600084E00E94810361E083E00E9481038FE9C2
:100270009FE00197F1F700C0000060E083E00E947A
:1002800081038FE99FE00197F1F700C00000C3FBF5
:10029000662760F987E00E948103C2FB662760F948
:1002A00086E00E948103C1FB662760F985E00E9419
:1002B00081036C2F617084E00E94810361E083E020
:1002C0000E9481038FE99FE00197F1F700C00000D1
:1002D00060E083E00E9481038FE99FE00197F1F7DE
:1002E00000C00000CF910895CF93C82F61E081E056
:1002F0000E9481036C2F661F6627661F87E00E949D
:100300008103C6FB662760F986E00E948103C5FB76
:10031000662760F985E00E948103C4FB662760F9C7
:1003200084E00E94810361E083E00E9481038FE901
:100330009FE00197F1F700C0000060E083E00E94B9
:1003400081038FE99FE00197F1F700C00000C3FB34
:10035000662760F987E00E948103C2FB662760F987
:1003600086E00E948103C1FB662760F985E00E9458
:1003700081036C2F617084E00E94810361E083E05F
:100380000E9481038FE99FE00197F1F700C0000010
:1003900060E083E00E9481038FE99FE00197F1F71D
:1003A00000C00000CF9108952FEF80E792E0215028
:1003B00080409040E1F700C0000082E00E941401FC
:1003C00088E20E9414018CE00E94140181E00E94E6
:1003D00014018FE99FE00197F1F700C0000086E06B
:1003E0000E94140108950E94740108950F931F93B1
:1003F000CF938C01C0E003C00E94F301CF5FF801EE
:10040000EC0FF11D80818111F7CFCF911F910F91DA
:100410000895811105C0862F80680E9414010895F7
:10042000813021F480EC860F0E941401089588B376
:10043000816088BB60E080E00E9409022FEF80E7C6
:1004400092E0215080409040E1F700C0000080E73A
:1004500090E00E94F60160E081E00E9409028CECCD
:1004600090E00E94F6010895CF93DF93CDB7DEB7F9
:1004700062970FB6F894DEBF0FBECDBF0E94710326
:100480000E94D4017894198281E08A8380E1E0E6B9
:10049000F0E0DE01139601900D928A95E1F7CE010E
:1004A00003960E946200CE0101960E94D0000E9435
:1004B00074008FEC97E00197F1F700C00000F7CFD0
:1004C000982F9695969596958770613009F459C046
:1004D00020F0623009F4A9C0FCC09130C9F028F0C6
:1004E000923049F19330D1F1F6C04AB321E030E0C7
:1004F000B90102C0660F771F8A95E2F7CB01942FEE
:10050000982B9ABB9BB3809589238BBB80E0089581
:1005100047B321E030E0B90102C0660F771F8A952A
:10052000E2F7CB01942F982B97BB98B38095892342
:1005300088BB80E0089544B321E030E0B90102C0F7
:10054000660F771F8A95E2F7CB01942F982B94BB07
:1005500095B38095892385BB80E0089541B321E060
:1005600030E0B90102C0660F771F8A95E2F7CB0130
:10057000942F982B91BB92B38095892382BB80E006
:1005800008959130C9F028F0923049F19330D1F1BB
:10059000A4C04AB321E030E0B90102C0660F771F62
:1005A0008A95E2F7CB018095942F98239ABB9BB351
:1005B00089238BBB80E0089547B321E030E0B90187
:1005C00002C0660F771F8A95E2F7CB018095942FC2
:1005D000982397BB98B3892388BB80E0089544B3E0
:1005E00021E030E0B90102C0660F771F8A95E2F77B
:1005F000CB018095942F982394BB95B3892385BB19
:1006000080E0089541B321E030E0B90102C0660FF7
:10061000771F8A95E2F7CB018095942F982391BBA1
:1006200092B3892382BB80E008959130C9F028F00D
:10063000923049F19330D1F152C04AB321E030E019
:10064000B90102C0660F771F8A95E2F7CB01962F9A
:10065000909594239ABB9BB3892B8BBB80E0089524
:1006600047B321E030E0B90102C0660F771F8A95D9
:10067000E2F7CB01962F9095942397BB98B3892BE3
:1006800088BB80E0089544B321E030E0B90102C0A6
:10069000660F771F8A95E2F7CB01962F90959423EA
:1006A00094BB95B3892B85BB80E0089541B321E0CD
:1006B00030E0B90102C0660F771F8A95E2F7CB01DF
:1006C000962F9095942391BB92B3892B82BB80E0A7
:1006D000089581E0089581E0089581E0089581E022
:1006E0000895CF93C0E009C0EC2FF0E0E558FF4F2C
:1006F00060818C2F0E946002CF5FC032A8F3CF913F
:100700000895982F9695969596958770662309F487
:1007100043C0613009F084C09130A1F028F09230DC
:10072000F9F0933059F17EC04BB321E030E0B901CC
:1007300002C0660F771F8A95E2F7CB01842B8BBB33
:1007400080E0089548B321E030E0B90102C0660FAF
:10075000771F8A95E2F7CB01842B88BB80E0089550
:1007600045B321E030E0B90102C0660F771F8A95DA
:10077000E2F7CB01842B85BB80E0089542B321E0F2
:1007800030E0B90102C0660F771F8A95E2F7CB010E
:10079000842B82BB80E008959130A9F028F092303C
:1007A00009F1933071F140C04BB321E030E0B90161
:1007B00002C0660F771F8A95E2F7CB0180958423EC
:1007C0008BBB80E0089548B321E030E0B90102C05E
:1007D000660F771F8A95E2F7CB018095842388BB4B
:1007E00080E0089545B321E030E0B90102C0660F12
:1007F000771F8A95E2F7CB018095842385BB80E043
:10080000089542B321E030E0B90102C0660F771FBE
:100810008A95E2F7CB018095842382BB80E008951E
:1008200083E0089581E0089581E008951F920F927A
:100830000FB60F9211242F933F934F935F936F93B3
:100840007F938F939F93AF93BF93EF93FF93E09129
:10085000C200F091C300309709F00995FF91EF9124
:10086000BF91AF919F918F917F916F915F914F91C8
:100870003F912F910F900FBE0F901F9018951F92D0
:100880000F920FB60F9211242F933F934F935F93C4
:100890006F937F938F939F93AF93BF93EF93FF9348
:1008A000E091C000F091C100309709F00995FF91E7
:1008B000EF91BF91AF919F918F917F916F915F91D8
:1008C0004F913F912F910F900FBE0F901F90189551
:1008D0001F920F920FB60F9211242F933F934F93B5
:1008E0005F936F937F938F939F93AF93BF93EF9398
:1008F000FF93E091BE00F091BF00309709F0099599
:10090000FF91EF91BF91AF919F918F917F916F91E7
:100910005F914F913F912F910F900FBE0F901F90BD
:10092000189510BC83E389B980919B00813041F018
:1009300018F0823049F00AC08AB188608AB906C0CE
:100940008AB180618AB902C088E18AB980B58460C1
:1009500080BD80B5826080BD80B58F7D80BD80B553
:100960008F7E80BD80B5877F80BD08952CB130E03B
:10097000FC013183208308958AB180688AB9089583
:100980008AB180648AB908959093C7008093C600A5
:1009900008959093C5008093C40008951F920F920C
:1009A0000FB60F9211242F933F934F935F936F9342
:1009B0007F938F939F93AF93BF93EF93FF93E091B8
:1009C000C600F091C700309709F00995FF91EF91AB
:1009D000BF91AF919F918F917F916F915F914F9157
:1009E0003F912F910F900FBE0F901F9018951F925F
:1009F0000F920FB60F9211242F933F934F935F9353
:100A00006F937F938F939F93AF93BF93EF93FF93D6
:100A1000E091C400F091C500309709F00995FF916D
:100A2000EF91BF91AF919F918F917F916F915F9166
:100A30004F913F912F910F900FBE0F901F901895DF
:040A4000F894FFCF58
:100A44000D00CC000A0000000000000017020001A5
:100A5400495F7265636569766564000000000000A3
:100A64000000000000010000000000000000000081
:100A74000000000202020000000102020001020064
:100A8400000300000000000000000000000000005F
:040A9400000000005E
:00000001FF
