:100000000C942A000C940F040C9438040C94610492
:100010000C9447000C9447000C9447000C94470044
:100020000C9447000C9447000C9447000C94470034
:100030000C9447000C94C9040C9447000C94F204EF
:100040000C9447000C9447000C9447000C94470014
:100050000C94470011241FBECFE5D8E0DEBFCDBF12
:1000600010E0A0E6B0E0EAE3FAE002C005900D92ED
:10007000AC3BB107D9F720E0ACEBB0E001C01D927A
:10008000A43DB207E1F70E942E020C941B050C94CC
:10009000000081E08093BF000895E091C100F091DD
:1000A000C2002685211102C00E94B10408958CEB84
:1000B00090E00E944D0081E08093BE0087E0809335
:1000C000C5000895E091C100F091C200268521117C
:1000D00002C00E94AF040895E1ECF0E091838083B8
:1000E000148213821282FC018785811104C081E091
:1000F0008093BF0008951092BF000895CF93DF93BF
:100100008091C000811108C0E091C100F091C2004F
:100110008785882309F43FC08091BF008130D9F5DD
:100120008091C500833041F0843059F1811133C092
:1001300083E08093C5002FC0C1ECD0E0E881F98155
:100140000280F381E02D8A819B81E80FF91F808175
:1001500090E00E9462008A819B81E881F981208180
:1001600031812817390730F001969093C4008093AD
:10017000C30011C0E1ECF0E01382128284E08483BA
:100180000AC0C1ECD0E0E881F9810484F585E02D56
:10019000099589E08C83DF91CF9108959093D300E6
:1001A0008093D20008951F93CF93DF93EC01E091E9
:1001B000C100F091C200828193810E94CE002097FD
:1001C00059F18881882319F0833040F528C00E94B6
:1001D0008A048981811108C00E94BB0489E490E0EF
:1001E0000E94C40411E01BC0813041F40E94B70496
:1001F00087E590E00E94BF0411E011C00E94BB049B
:1002000089E490E00E94C4040E94B70487E590E06E
:100210000E94BF0411E003C010E001C010E081E0C3
:100220008093C000812FDF91CF911F910895CF93CC
:10023000C82F60E081E00E947A036C2F661F66275A
:10024000661F87E00E947A03C6FB662760F986E096
:100250000E947A03C5FB662760F985E00E947A0355
:10026000C4FB662760F984E00E947A0361E083E0C2
:100270000E947A038FE99FE00197F1F700C0000028
:1002800060E083E00E947A038FE99FE00197F1F735
:1002900000C00000C3FB662760F987E00E947A0374
:1002A000C2FB662760F986E00E947A03C1FB6627DD
:1002B00060F985E00E947A036C2F617084E00E94EF
:1002C0007A0361E083E00E947A038FE99FE001975F
:1002D000F1F700C0000060E083E00E947A038FE93C
:1002E0009FE00197F1F700C00000CF910895CF93F0
:1002F000C82F61E081E00E947A036C2F661F662799
:10030000661F87E00E947A03C6FB662760F986E0D5
:100310000E947A03C5FB662760F985E00E947A0394
:10032000C4FB662760F984E00E947A0361E083E001
:100330000E947A038FE99FE00197F1F700C0000067
:1003400060E083E00E947A038FE99FE00197F1F774
:1003500000C00000C3FB662760F987E00E947A03B3
:10036000C2FB662760F986E00E947A03C1FB66271C
:1003700060F985E00E947A036C2F617084E00E942E
:100380007A0361E083E00E947A038FE99FE001979E
:10039000F1F700C0000060E083E00E947A038FE97B
:1003A0009FE00197F1F700C00000CF9108952FEF73
:1003B00080E792E0215080409040E1F700C00000CB
:1003C00082E00E94170188E20E9417018CE00E94DF
:1003D000170181E00E9417018FE99FE00197F1F773
:1003E00000C0000086E00E94170108950E94770176
:1003F00008950F931F93CF938C01C0E003C00E9418
:10040000F601CF5FF801EC0FF11D80818111F7CF6C
:10041000CF911F910F910895811105C0862F80689B
:100420000E9417010895813021F480EC860F0E940C
:100430001701089588B3826088BB60E080E00E9465
:100440000C028DE790E00E94F90160E081E00E94DB
:100450000C0280E690E00E94F9010895CF93DF93AB
:10046000CDB7DEB762970FB6F894DEBF0FBECDBF33
:100470000E946A030E94D701789419821A8280E14F
:10048000EDE6F0E0DE01139601900D928A95E1F71A
:10049000CE0103960E946C00CE0101960E94D3000B
:1004A0000E947E008FEC97E00197F1F700C00000FA
:1004B000F7CF982F9695969596958770613009F4A9
:1004C00059C020F0623009F4A9C0FCC09130C9F0D5
:1004D00028F0923049F19330D1F1F6C04AB321E0CF
:1004E00030E0B90102C0660F771F8A95E2F7CB01B1
:1004F000942F982B9ABB9BB3809589238BBB80E06C
:10050000089547B321E030E0B90102C0660F771FBC
:100510008A95E2F7CB01942F982B97BB98B38095DF
:10052000892388BB80E0089544B321E030E0B9011D
:1005300002C0660F771F8A95E2F7CB01942F982BA4
:1005400094BB95B38095892385BB80E0089541B322
:1005500021E030E0B90102C0660F771F8A95E2F70B
:10056000CB01942F982B91BB92B38095892382BBAA
:1005700080E008959130C9F028F0923049F193302D
:10058000D1F1A4C04AB321E030E0B90102C0660F46
:10059000771F8A95E2F7CB018095942F98239ABB19
:1005A0009BB389238BBB80E0089547B321E030E003
:1005B000B90102C0660F771F8A95E2F7CB018095DB
:1005C000942F982397BB98B3892388BB80E0089524
:1005D00044B321E030E0B90102C0660F771F8A956D
:1005E000E2F7CB018095942F982394BB95B3892390
:1005F00085BB80E0089541B321E030E0B90102C03D
:10060000660F771F8A95E2F7CB018095942F982388
:1006100091BB92B3892382BB80E008959130C9F0E9
:1006200028F0923049F19330D1F152C04AB321E021
:1006300030E0B90102C0660F771F8A95E2F7CB015F
:10064000962F909594239ABB9BB3892B8BBB80E00C
:10065000089547B321E030E0B90102C0660F771F6B
:100660008A95E2F7CB01962F9095942397BB98B388
:10067000892B88BB80E0089544B321E030E0B901C4
:1006800002C0660F771F8A95E2F7CB01962F9095EF
:10069000942394BB95B3892B85BB80E0089541B327
:1006A00021E030E0B90102C0660F771F8A95E2F7BA
:1006B000CB01962F9095942391BB92B3892B82BB4B
:1006C00080E0089581E0089581E0089581E0089533
:1006D00081E00895CF93C0E009C0EC2FF0E0EC5723
:1006E000FF4F60818C2F0E945902CF5FC032A8F368
:1006F000CF910895982F9695969596958770662335
:1007000009F443C0613009F084C09130A1F028F0B1
:100710009230F9F0933059F17EC04BB321E030E0D4
:10072000B90102C0660F771F8A95E2F7CB01842BCF
:100730008BBB80E0089548B321E030E0B90102C0EE
:10074000660F771F8A95E2F7CB01842B88BB80E088
:10075000089545B321E030E0B90102C0660F771F6C
:100760008A95E2F7CB01842B85BB80E0089542B3E4
:1007700021E030E0B90102C0660F771F8A95E2F7E9
:10078000CB01842B82BB80E008959130A9F028F042
:10079000923009F1933071F140C04BB321E030E069
:1007A000B90102C0660F771F8A95E2F7CB018095E9
:1007B00084238BBB80E0089548B321E030E0B90189
:1007C00002C0660F771F8A95E2F7CB0180958423DC
:1007D00088BB80E0089545B321E030E0B90102C054
:1007E000660F771F8A95E2F7CB018095842385BB3E
:1007F00080E0089542B321E030E0B90102C0660F05
:10080000771F8A95E2F7CB018095842382BB80E035
:10081000089583E0089581E0089581E008951F928E
:100820000F920FB60F9211242F933F934F935F9324
:100830006F937F938F939F93AF93BF93EF93FF93A8
:10084000E091CA00F091CB00309709F00995FF9133
:10085000EF91BF91AF919F918F917F916F915F9138
:100860004F913F912F910F900FBE0F901F901895B1
:100870001F920F920FB60F9211242F933F934F9315
:100880005F936F937F938F939F93AF93BF93EF93F8
:10089000FF93E091C800F091C900309709F00995E5
:1008A000FF91EF91BF91AF919F918F917F916F9148
:1008B0005F914F913F912F910F900FBE0F901F901E
:1008C00018951F920F920FB60F9211242F933F93FA
:1008D0004F935F936F937F938F939F93AF93BF9348
:1008E000EF93FF93E091C600F091C700309709F0B5
:1008F0000995FF91EF91BF91AF919F918F917F915A
:100900006F915F914F913F912F910F900FBE0F907C
:100910001F90189510BC83E389B98091A4008130A1
:1009200041F018F0823049F00AC08AB188608AB973
:1009300006C08AB180618AB902C088E18AB980B5EF
:10094000846080BD80B5826080BD80B58F7D80BDB4
:1009500080B58F7E80BD80B5877F80BD08958CB9BE
:1009600008952CB130E0FC013183208308958AB1D1
:1009700080688AB908958AB180648AB9089590938D
:10098000CF008093CE0008959093CD008093CC004B
:1009900008951F920F920FB60F9211242F933F9339
:1009A0004F935F936F937F938F939F93AF93BF9377
:1009B000EF93FF93E091CE00F091CF00309709F0D4
:1009C0000995FF91EF91BF91AF919F918F917F9189
:1009D0006F915F914F913F912F910F900FBE0F90AC
:1009E0001F9018951F920F920FB60F9211242F93FC
:1009F0003F934F935F936F937F938F939F93AF93A7
:100A0000BF93EF93FF93E091CC00F091CD0030972E
:100A100009F00995FF91EF91BF91AF919F918F914F
:100A20007F916F915F914F913F912F910F900FBEEA
:0A0A30000F901F901895F894FFCF67
:100A3A0042434D206F7065726174696F6E0C00607D
:100A4A00000A000000000000001A020000495F537B
:100A5A00454E5400000000000000000000000100A4
:100A6A000000000000000000000000000202020076
:100A7A000000010202000102000003000000000061
:0C0A8A0000000000000000000000000060
:00000001FF
