S00B0000534F532E7372656324
S11300000C942A000C9484030C94AD030C94D60332
S11300100C9447000C94DC040C94B3040C94470037
S11300200C948A040C9461040C9447000C943404DA
S11300300C9447000C9447000C9447000C94470020
S11300400C9447000C9447000C9447000C94470010
S11300500C94470011241FBECFE5D8E0DEBFCDBF0E
S113006010E0A0E6B0E0E2E5FAE002C005900D92EF
S1130070AC38B107D9F720E0ACE8B0E001C01D927C
S1130080A43AB207E1F70E9488010C9427050C9466
S11300900000CF93C82F60E081E00E94EF026C2F34
S11300A0661F6627661F86E00E94EF02C6FB66276E
S11300B060F985E00E94EF02C5FB662760F984E0E1
S11300C00E94EF02C4FB662760F983E00E94EF02FE
S11300D061E082E00E94EF028FE99FE00197F1F76F
S11300E000C0000060E082E00E94EF028FE99FE020
S11300F00197F1F700C00000C3FB662760F986E0B2
S11301000E94EF02C2FB662760F985E00E94EF02BD
S1130110C1FB662760F984E00E94EF026C2F6170D6
S113012083E00E94EF0261E082E00E94EF028FE927
S11301309FE00197F1F700C0000060E082E00E94B8
S1130140EF028FE99FE00197F1F700C00000CF9123
S11301500895CF93C82F61E081E00E94EF026C2FD5
S1130160661F6627661F86E00E94EF02C6FB6627AD
S113017060F985E00E94EF02C5FB662760F984E020
S11301800E94EF02C4FB662760F983E00E94EF023D
S113019061E082E00E94EF028FE99FE00197F1F7AE
S11301A000C0000060E082E00E94EF028FE99FE05F
S11301B00197F1F700C00000C3FB662760F986E0F1
S11301C00E94EF02C2FB662760F985E00E94EF02FD
S11301D0C1FB662760F984E00E94EF026C2F617016
S11301E083E00E94EF0261E082E00E94EF028FE967
S11301F09FE00197F1F700C0000060E082E00E94F8
S1130200EF028FE99FE00197F1F700C00000CF9162
S113021008952FEF80E792E0215080409040E1F76D
S113022000C0000082E00E94490088E20E94490068
S11302308CE00E94490081E00E9449008FE99FE020
S11302400197F1F700C0000086E00E94490008957C
S11302500E94A90008950F931F93CF938C01C0E0CF
S113026003C00E942801CF5FF801EC0FF11D8081CB
S11302708111F7CFCF911F910F910895811105C07E
S1130280862F80680E9449000895813021F480EC13
S1130290860F0E94490008958091900090919100EA
S11302A0A0919200B09193000196A11DB11D80937D
S11302B0900090939100A0939200B093930080914A
S11302C0900090919100A0919200B0919300843697
S11302D09105A105B105D9F480918C0090918D0010
S11302E0A0918E00B0918F000196A11DB11D809345
S11302F08C0090938D00A0938E00B0938F00109289
S11303009000109291001092920010929300089520
S11303100E94DF020E94090180E00E94FF0378949A
S11303200E945D048CE491E00E942F0483E00E940B
S1130330230460918C0070918D0080918E009091C7
S11303408F0023E030E040E050E00E940505672B79
S1130350682B692B41F460E080E00E943E0180E656
S113036090E00E942B0160918C0070918D0080912F
S11303708E0090918F0025E030E040E050E00E9434
S11303800505672B682B692BA1F660E080E00E94CD
S11303903E0186E690E00E942B01CBCF982F9695E4
S11303A0969596958770613009F459C020F06230B3
S11303B009F4A9C0FCC09130C9F028F0923049F189
S11303C09330D1F1F6C04AB321E030E0B90102C064
S11303D0660F771F8A95E2F7CB01942F982B9ABB6F
S11303E09BB3809589238BBB80E0089547B321E0BC
S11303F030E0B90102C0660F771F8A95E2F7CB019E
S1130400942F982B97BB98B38095892388BB80E061
S1130410089544B321E030E0B90102C0660F771FAC
S11304208A95E2F7CB01942F982B94BB95B38095D2
S1130430892385BB80E0089541B321E030E0B90110
S113044002C0660F771F8A95E2F7CB01942F982B91
S113045091BB92B38095892382BB80E0089591304B
S1130460C9F028F0923049F19330D1F1A4C04AB3D5
S113047021E030E0B90102C0660F771F8A95E2F7E8
S1130480CB018095942F98239ABB9BB389238BBB74
S113049080E0089547B321E030E0B90102C0660F5F
S11304A0771F8A95E2F7CB018095942F982397BB09
S11304B098B3892388BB80E0089544B321E030E0F9
S11304C0B90102C0660F771F8A95E2F7CB018095C8
S11304D0942F982394BB95B3892385BB80E008951A
S11304E041B321E030E0B90102C0660F771F8A955D
S11304F0E2F7CB018095942F982391BB92B3892383
S113050082BB80E008959130C9F028F0923049F11F
S11305109330D1F152C04AB321E030E0B90102C0B6
S1130520660F771F8A95E2F7CB01962F9095942357
S11305309ABB9BB3892B8BBB80E0089547B321E022
S113054030E0B90102C0660F771F8A95E2F7CB014C
S1130550962F9095942397BB98B3892B88BB80E002
S1130560089544B321E030E0B90102C0660F771F5B
S11305708A95E2F7CB01962F9095942394BB95B37B
S1130580892B85BB80E0089541B321E030E0B901B7
S113059002C0660F771F8A95E2F7CB01962F9095DC
S11305A0942391BB92B3892B82BB80E0089581E0B0
S11305B0089581E0089581E0089581E00895CF933E
S11305C0C0E009C0EC2FF0E0E459FF4F60818C2FAC
S11305D00E94CE01CF5FC032A8F3CF910895982F27
S11305E09695969596958770662309F443C0613075
S11305F009F084C09130A1F028F09230F9F09330E2
S113060059F17EC04BB321E030E0B90102C0660F5E
S1130610771F8A95E2F7CB01842B8BBB80E008958A
S113062048B321E030E0B90102C0660F771F8A9514
S1130630E2F7CB01842B88BB80E0089545B321E029
S113064030E0B90102C0660F771F8A95E2F7CB014B
S1130650842B85BB80E0089542B321E030E0B901EA
S113066002C0660F771F8A95E2F7CB01842B82BB09
S113067080E008959130A9F028F0923009F1933088
S113068071F140C04BB321E030E0B90102C0660F04
S1130690771F8A95E2F7CB01809584238BBB80E09A
S11306A0089548B321E030E0B90102C0660F771F16
S11306B08A95E2F7CB018095842388BB80E0089576
S11306C045B321E030E0B90102C0660F771F8A9577
S11306D0E2F7CB018095842385BB80E0089542B383
S11306E021E030E0B90102C0660F771F8A95E2F776
S11306F0CB018095842382BB80E0089583E0089534
S113070081E0089581E008951F920F920FB60F9231
S113071011242F933F934F935F936F937F938F9302
S11307209F93AF93BF93EF93FF93E0919800F09161
S11307309900309709F00995FF91EF91BF91AF911E
S11307409F918F917F916F915F914F913F912F91E5
S11307500F900FBE0F901F9018951F920F920FB617
S11307600F9211242F933F934F935F936F937F9333
S11307708F939F93AF93BF93EF93FF93E091960072
S1130780F0919700309709F00995FF91EF91BF918F
S1130790AF919F918F917F916F915F914F913F9115
S11307A02F910F900FBE0F901F9018951F920F92CC
S11307B00FB60F9211242F933F934F935F936F9330
S11307C07F938F939F93AF93BF93EF93FF93E091A6
S11307D09400F0919500309709F00995FF91EF91FD
S11307E0BF91AF919F918F917F916F915F914F9145
S11307F03F912F910F900FBE0F901F90189581304D
S113080069F028F0823089F08330B1F0089583B71D
S11308108F7B83BF83B7877F83BF089583B780644B
S113082083BF83B7877F83BF089583B78F7B83BFDD
S113083083B7886083BF089583B7806483BF83B719
S1130840886083BF0895883040F493B7987F93BF3E
S113085093B7892B83BF84E0089580E00895909333
S1130860A3008093A20008951F920F920FB60F92D7
S113087011242F933F934F935F936F937F938F93A1
S11308809F93AF93BF93EF93FF93E091A200F091F6
S1130890A300309709F00995FF91EF91BF91AF91B3
S11308A09F918F917F916F915F914F913F912F9184
S11308B00F900FBE0F901F90189589B7816089BF64
S11308C008951F920F920FB60F9211242F933F9306
S11308D04F935F936F937F938F939F93AF93BF9344
S11308E0EF93FF93E091A000F091A100309709F0FD
S11308F00995FF91EF91BF91AF919F918F917F9156
S11309006F915F914F913F912F910F900FBE0F9078
S11309101F9018951F920F920FB60F9211242F93C8
S11309203F934F935F936F937F938F939F93AF9373
S1130930BF93EF93FF93E0919E00F0919F00309757
S113094009F00995FF91EF91BF91AF919F918F911C
S11309507F916F915F914F913F912F910F900FBEB7
S11309600F901F9018951F920F920FB60F9211249B
S11309702F933F934F935F936F937F938F939F93A3
S1130980AF93BF93EF93FF93E0919C00F0919D0090
S1130990309709F00995FF91EF91BF91AF919F9125
S11309A08F917F916F915F914F913F912F910F9014
S11309B00FBE0F901F9018951F920F920FB60F92B3
S11309C011242F933F934F935F936F937F938F9350
S11309D09F93AF93BF93EF93FF93E0919A00F091AD
S11309E09B00309709F00995FF91EF91BF91AF916A
S11309F09F918F917F916F915F914F913F912F9133
S1130A000F900FBE0F901F901895A1E21A2EAA1BEB
S1130A10BB1BFD010DC0AA1FBB1FEE1FFF1FA217AA
S1130A20B307E407F50720F0A21BB30BE40BF50BA7
S1130A30661F771F881F991F1A9469F76095709530
S1130A40809590959B01AC01BD01CF010895F89468
S1050A50FFCFD2
S1130A527461736B31007461736B320000000000C7
S1130A620000000000000000000000000000000080
S10F0A7200000000000000000000000074
S9030000FC
