S00B0000534F532E7372656324
S11300000C942A000C94D2030C94FB030C94240447
S11300100C9447000C942A050C9401050C94470099
S11300200C94D8040C94AF040C9447000C948204F0
S11300300C9447000C9447000C9447000C94470020
S11300400C9447000C9447000C9447000C94470010
S11300500C94470011241FBECFE5D8E0DEBFCDBF0E
S113006010E0A0E6B0E0E6E3FEE002C005900D92E9
S1130070A038B107D9F720E0A0E8B0E001C01D9294
S1130080A03CB207E1F70E94A2010C9419070C945A
S11300900000CF93C82F60E081E00E94F6026C2F2D
S11300A0661F6627661F86E00E94F602C6FB662767
S11300B060F985E00E94F602C5FB662760F984E0DA
S11300C00E94F602C4FB662760F983E00E94F602F0
S11300D061E082E00E94F6028FE99FE00197F1F768
S11300E000C0000060E082E00E94F6028FE99FE019
S11300F00197F1F700C00000C3FB662760F986E0B2
S11301000E94F602C2FB662760F985E00E94F602AF
S1130110C1FB662760F984E00E94F6026C2F6170CF
S113012083E00E94F60261E082E00E94F6028FE919
S11301309FE00197F1F700C0000060E082E00E94B8
S1130140F6028FE99FE00197F1F700C00000CF911C
S11301500895CF93C82F61E081E00E94F6026C2FCE
S1130160661F6627661F86E00E94F602C6FB6627A6
S113017060F985E00E94F602C5FB662760F984E019
S11301800E94F602C4FB662760F983E00E94F6022F
S113019061E082E00E94F6028FE99FE00197F1F7A7
S11301A000C0000060E082E00E94F6028FE99FE058
S11301B00197F1F700C00000C3FB662760F986E0F1
S11301C00E94F602C2FB662760F985E00E94F602EF
S11301D0C1FB662760F984E00E94F6026C2F61700F
S11301E083E00E94F60261E082E00E94F6028FE959
S11301F09FE00197F1F700C0000060E082E00E94F8
S1130200F6028FE99FE00197F1F700C00000CF915B
S113021008952FEF80E792E0215080409040E1F76D
S113022000C0000082E00E94490088E20E94490068
S11302308CE00E94490081E00E9449008FE99FE020
S11302400197F1F700C0000086E00E94490008957C
S11302500E94A9000895811105C0862F80680E941C
S113026049000895813021F480EC860F0E944900F2
S11302700895CF92DF92EF92FF921F93CF93DF9373
S1130280CDB7DEB72A970FB6F894DEBF0FBECDBF49
S11302906B017C01611571058105910521F480E3F1
S11302A00E94280139C099235CF4F094E094D0941E
S11302B0C094C11CD11CE11CF11C8DE20E942801D8
S11302C010E015C0C701B6012AE030E040E050E07C
S11302D00E946106E1E0F0E0EC0FFD1FE10FF11D6B
S11302E0605D60831F5FC22ED32EE42EF52EC114F1
S11302F0D104E104F10431F70DC0E12FF0E03197AE
S113030081E090E08C0F9D1FE80FF91F80810E940F
S1130310280111501111F1CF2A960FB6F894DEBFBF
S11303200FBECDBFDF91CF911F91FF90EF90DF9073
S1130330CF90089588E00E948B03089589E00E947D
S11303408B030895CF93DF9300D000D000D0CDB7B6
S1130350DEB70E94E6020E94090178940E94BF055C
S113036083E089838AE991E09B838A8385E08C8397
S11303708EE991E09E838D83BE016F5F7F4F83E0A2
S11303800E94D605BE016C5F7F4F85E00E94D605B2
S11303900E940B0680E090E026960FB6F894DEBF2C
S11303A00FBECDBFDF91CF910895982F9695969566
S11303B096958770613009F459C020F0623009F4D1
S11303C0A9C0FCC09130C9F028F0923049F19330B3
S11303D0D1F1F6C04AB321E030E0B90102C0660FA2
S11303E0771F8A95E2F7CB01942F982B9ABB9BB386
S11303F0809589238BBB80E0089547B321E030E0EA
S1130400B90102C0660F771F8A95E2F7CB01942FDA
S1130410982B97BB98B38095892388BB80E0089577
S113042044B321E030E0B90102C0660F771F8A951A
S1130430E2F7CB01942F982B94BB95B38095892335
S113044085BB80E0089541B321E030E0B90102C0EA
S1130450660F771F8A95E2F7CB01942F982B91BBF7
S113046092B38095892382BB80E008959130C9F0CE
S113047028F0923049F19330D1F1A4C04AB321E07D
S113048030E0B90102C0660F771F8A95E2F7CB010D
S11304908095942F98239ABB9BB389238BBB80E0D0
S11304A0089547B321E030E0B90102C0660F771F19
S11304B08A95E2F7CB018095942F982397BB98B344
S11304C0892388BB80E0089544B321E030E0B9017A
S11304D002C0660F771F8A95E2F7CB018095942FAF
S11304E0982394BB95B3892385BB80E0089541B3D9
S11304F021E030E0B90102C0660F771F8A95E2F768
S1130500CB018095942F982391BB92B3892382BB0E
S113051080E008959130C9F028F0923049F1933089
S1130520D1F152C04AB321E030E0B90102C0660FF4
S1130530771F8A95E2F7CB01962F909594239ABB67
S11305409BB3892B8BBB80E0089547B321E030E057
S1130550B90102C0660F771F8A95E2F7CB01962F87
S11305609095942397BB98B3892B88BB80E008951A
S113057044B321E030E0B90102C0660F771F8A95C9
S1130580E2F7CB01962F9095942394BB95B3892BD6
S113059085BB80E0089541B321E030E0B90102C099
S11305A0660F771F8A95E2F7CB01962F90959423D7
S11305B091BB92B3892B82BB80E0089581E00895BA
S11305C081E0089581E0089581E00895CF93C0E02B
S11305D009C0EC2FF0E0E05AFF4F60818C2F0E949D
S11305E0D501CF5FC032A8F3CF910895982F969587
S11305F0969596958770662309F443C0613009F097
S113060084C09130A1F028F09230F9F0933059F180
S11306107EC04BB321E030E0B90102C0660F771F02
S11306208A95E2F7CB01842B8BBB80E0089548B315
S113063021E030E0B90102C0660F771F8A95E2F726
S1130640CB01842B88BB80E0089545B321E030E0E2
S1130650B90102C0660F771F8A95E2F7CB01842B9C
S113066085BB80E0089542B321E030E0B90102C0C7
S1130670660F771F8A95E2F7CB01842B82BB80E05B
S113068008959130A9F028F0923009F1933071F176
S113069040C04BB321E030E0B90102C0660F771FC0
S11306A08A95E2F7CB01809584238BBB80E0089583
S11306B048B321E030E0B90102C0660F771F8A9584
S11306C0E2F7CB018095842388BB80E0089545B38D
S11306D021E030E0B90102C0660F771F8A95E2F786
S11306E0CB018095842385BB80E0089542B321E04B
S11306F030E0B90102C0660F771F8A95E2F7CB019B
S11307008095842382BB80E0089583E0089581E08E
S1130710089581E00895982F9695969596958770FB
S11307209130A1F028F09230F9F0933059F138C0AB
S11307304BB321E030E0B90102C0660F771F8A9500
S1130740E2F7CB0184278BBB80E0089548B321E016
S113075030E0B90102C0660F771F8A95E2F7CB013A
S1130760842788BB80E0089545B321E030E0B901D7
S113077002C0660F771F8A95E2F7CB01842785BBF9
S113078080E0089542B321E030E0B90102C0660F71
S1130790771F8A95E2F7CB01842782BB80E0089516
S11307A081E008951F920F920FB60F9211242F9398
S11307B03F934F935F936F937F938F939F93AF93E5
S11307C0BF93EF93FF93E0918400F09185003097FD
S11307D009F00995FF91EF91BF91AF919F918F918E
S11307E07F916F915F914F913F912F910F900FBE29
S11307F00F901F9018951F920F920FB60F9211240D
S11308002F933F934F935F936F937F938F939F9314
S1130810AF93BF93EF93FF93E0918200F091830035
S1130820309709F00995FF91EF91BF91AF919F9196
S11308308F917F916F915F914F913F912F910F9085
S11308400FBE0F901F9018951F920F920FB60F9224
S113085011242F933F934F935F936F937F938F93C1
S11308609F93AF93BF93EF93FF93E0918000F09138
S11308708100309709F00995FF91EF91BF91AF91F5
S11308809F918F917F916F915F914F913F912F91A4
S11308900F900FBE0F901F901895813069F028F0CB
S11308A0823089F08330B1F0089583B78F7B83BFA2
S11308B083B7877F83BF089583B7806483BF83B77B
S11308C0877F83BF089583B78F7B83BF83B7886097
S11308D083BF089583B7806483BF83B7886083BF71
S11308E00895883040F493B7987F93BF93B7892BCA
S11308F083BF84E0089580E0089590938F008093EF
S11309008E0008951F920F920FB60F9211242F9309
S11309103F934F935F936F937F938F939F93AF9383
S1130920BF93EF93FF93E0918E00F0918F00309787
S113093009F00995FF91EF91BF91AF919F918F912C
S11309407F916F915F914F913F912F910F900FBEC7
S11309500F901F90189589B7816089BF08951F92E1
S11309600F920FB60F9211242F933F934F935F93DF
S11309706F937F938F939F93AF93BF93EF93FF9363
S1130980E0918C00F0918D00309709F00995FF916A
S1130990EF91BF91AF919F918F917F916F915F91F3
S11309A04F913F912F910F900FBE0F901F9018956C
S11309B01F920F920FB60F9211242F933F934F93D0
S11309C05F936F937F938F939F93AF93BF93EF93B3
S11309D0FF93E0918A00F0918B00309709F009951C
S11309E0FF91EF91BF91AF919F918F917F916F9103
S11309F05F914F913F912F910F900FBE0F901F90D9
S1130A0018951F920F920FB60F9211242F933F93B4
S1130A104F935F936F937F938F939F93AF93BF9302
S1130A20EF93FF93E0918800F0918900309709F0EB
S1130A300995FF91EF91BF91AF919F918F917F9114
S1130A406F915F914F913F912F910F900FBE0F9037
S1130A501F9018951F920F920FB60F9211242F9387
S1130A603F934F935F936F937F938F939F93AF9332
S1130A70BF93EF93FF93E0918600F0918700309746
S1130A8009F00995FF91EF91BF91AF919F918F91DB
S1130A907F916F915F914F913F912F910F900FBE76
S1130AA00F901F901895FC012081211106C08181AF
S1130AB09281892B21F083E0089583E0089582E0F8
S1130AC0089520919A0030919B0040919C00509190
S1130AD09D0060919E0070919F008091A000909174
S1130AE0A100A1E00E94DF0620939A0030939B00AE
S1130AF040939C0050939D0060939E0070939F00D0
S1130B008093A0009093A100A4E60E94EB06B1F5A7
S1130B1081E0809391002091920030919300409164
S1130B209400509195006091960070919700809187
S1130B30980090919900A1E00E94DF062093920012
S1130B4030939300409394005093950060939600E3
S1130B5070939700809398009093990010929A0054
S1130B6010929B0010929C0010929D0010929E0087
S1130B7010929F001092A0001092A10008958091FD
S1130B809000811111C08F5F8093900080E00E94DB
S1130B904D040E94AB0481E695E00E947D0483E04D
S1130BA00E94710484E0089581E00895FF920F93F8
S1130BB01F93CF93DF93F82E8B01C82FD0E0CE0183
S1130BC0880F991F8C0F9D1F8E559F4F0E945305B0
S1130BD08230B1F489E08F15A8F001151105A1F058
S1130BE0CE01880F991FC80FD91FCE55DF4FF801CA
S1130BF080819181A28188839983AA8385E005C03D
S1130C0081E003C081E001C081E0DF91CF911F91B9
S1130C100F91FF900895809191008130E1F748C0D1
S1130C20C92DD0E0CE01880F991F8C0F9D1F8E55C2
S1130C309F4F0E9453058230C9F1FE01EE0FFF1F42
S1130C40EC0FFD1FEE55FF4FA080209192003091D4
S1130C50930040919400509195006091960070919A
S1130C609700B12CC12CD12CE12CF12C00E010E028
S1130C7080919800909199000E948006A0E00E94C3
S1130C80EB06A1F4CE01880F991FC80FD91FCE55CA
S1130C90DF4FE981FA81099560E080E00E942B0131
S1130CA0692D70E080E090E00E943901939402C0C5
S1130CB0992493948AE0891508F0B2CF1092910098
S1130CC0AACF052E97FB1EF400940E94780657FDC8
S1130CD007D00E94F70607FC03D04EF40C94780664
S1130CE050954095309521953F4F4F4F5F4F089554
S1130CF090958095709561957F4F8F4F9F4F089584
S1130D00689401C0E8948F929F92CF93DF930E94DE
S1130D108E06DF91CF919F908F9008958824992417
S1130D20F401E401B0E49F93AA279A158B049C0470
S1130D30ED05FE05CF05D007A10798F4AD2FDC2FF4
S1130D40CF2FFE2FE92D982C892E982F872F762FC1
S1130D50652F542F432F322F2227B85031F7BF91DC
S1130D6027C01B2EBF91BB27220F331F441F551FC3
S1130D70661F771F881F991F881C991CEE1FFF1F71
S1130D80CC1FDD1FAA1FBB1F8A149B04EC05FD05A5
S1130D90CE05DF05A007B10748F08A189B08EC09C7
S1130DA0FD09CE09DF09A00BB10B21601A94E1F60D
S1130DB02EF49401AF01BE01CD01000C089500246E
S1130DC0A7FD00942A0F301D401D501D601D701D8D
S1130DD0801D901D08950024A7FD00942A17300556
S1130DE04005500560057005800590050895A1E251
S1130DF01A2EAA1BBB1BFD010DC0AA1FBB1FEE1F91
S1130E00FF1FA217B307E407F50720F0A21BB30BDB
S1130E10E40BF50B661F771F881F991F1A9469F757
S1130E2060957095809590959B01AC01BD01CF01B3
S1090E300895F894FFCFC1
S1130E3600000000000000000000000000000000A8
S1130E460000000000000000000000000000000098
S9030000FC
