S00B0000534F532E7372656324
S11300000C942A000C94F4030C941D040C944604E0
S11300100C9447000C944C050C9423050C94470055
S11300200C94FA040C94D1040C9447000C94A4048A
S11300300C9447000C9447000C9447000C94470020
S11300400C9447000C9447000C9447000C94470010
S11300500C94470011241FBECFE5D8E0DEBFCDBF0E
S113006010E0A0E6B0E0E8E5FEE002C005900D92E5
S1130070A038B107D9F720E0A0E8B0E001C01D9294
S1130080A23CB207E1F70E94EC000C942A070C94FE
S113009000000E942D020E94CD0078940E94D20399
S11300A080E00E94600363E080E00E9472036AEAD9
S11300B076E080E00E94DF03089588E00E9419033F
S11300C0089589E00E9419030895803220F40E9463
S11300D0D20280E0089582E00895CF93C82F60E0B3
S11300E081E00E943D026C2F661F6627661F86E032
S11300F00E943D02C6FB662760F985E00E943D022E
S1130100C5FB662760F984E00E943D02C4FB6627B4
S113011060F983E00E943D0261E082E00E943D02BA
S11301208FE99FE00197F1F700C0000060E082E0F2
S11301300E943D028FE99FE00197F1F700C00000A3
S1130140C3FB662760F986E00E943D02C2FB662776
S113015060F985E00E943D02C1FB662760F984E0F6
S11301600E943D026C2F617083E00E943D0261E0B9
S113017082E00E943D028FE99FE00197F1F700C001
S1130180000060E082E00E943D028FE99FE0019759
S1130190F1F700C00000CF9108952FEF80E792E0BF
S11301A0215080409040E1F700C0000082E00E94AE
S11301B06D0088E20E946D008CE00E946D0081E079
S11301C00E946D008FE99FE00197F1F700C00000E5
S11301D086E00E946D000895CF93DF9300D000D095
S11301E000D0CDB7DEB70E9449000E94E10583E04C
S11301F089838DE590E09B838A8385E08C8381E607
S113020090E09E838D83BE016F5F7F4F83E00E94E9
S1130210F805BE016C5F7F4F85E00E94F8050E94DF
S1130220560680E090E026960FB6F894DEBF0FBE27
S1130230CDBFDF91CF910895982F96959695969579
S11302408770613009F459C020F0623009F4A9C004
S1130250FCC09130C9F028F0923049F19330D1F1CB
S1130260F6C04AB321E030E0B90102C0660F771F3F
S11302708A95E2F7CB01942F982B9ABB9BB3809578
S113028089238BBB80E0089547B321E030E0B901B6
S113029002C0660F771F8A95E2F7CB01942F982B43
S11302A097BB98B38095892388BB80E0089544B3B5
S11302B021E030E0B90102C0660F771F8A95E2F7AA
S11302C0CB01942F982B94BB95B38095892385BB40
S11302D080E0089541B321E030E0B90102C0660F27
S11302E0771F8A95E2F7CB01942F982B91BB92B399
S11302F08095892382BB80E008959130C9F028F06D
S1130300923049F19330D1F1A4C04AB321E030E0F6
S1130310B90102C0660F771F8A95E2F7CB01809579
S1130320942F98239ABB9BB389238BBB80E00895B9
S113033047B321E030E0B90102C0660F771F8A9508
S1130340E2F7CB018095942F982397BB98B3892328
S113035088BB80E0089544B321E030E0B90102C0D5
S1130360660F771F8A95E2F7CB018095942F982327
S113037094BB95B3892385BB80E0089541B321E004
S113038030E0B90102C0660F771F8A95E2F7CB010E
S11303908095942F982391BB92B3892382BB80E0EC
S11303A008959130C9F028F0923049F19330D1F199
S11303B052C04AB321E030E0B90102C0660F771F92
S11303C08A95E2F7CB01962F909594239ABB9BB321
S11303D0892B8BBB80E0089547B321E030E0B9015D
S11303E002C0660F771F8A95E2F7CB01962F90958E
S11303F0942397BB98B3892B88BB80E0089544B3BA
S113040021E030E0B90102C0660F771F8A95E2F758
S1130410CB01962F9095942394BB95B3892B85BBE0
S113042080E0089541B321E030E0B90102C0660FD5
S1130430771F8A95E2F7CB01962F9095942391BB71
S113044092B3892B82BB80E0089581E0089581E016
S1130450089581E0089581E00895CF93C0E009C034
S1130460EC2FF0E0E05AFF4F60818C2F0E941C01BA
S1130470CF5FC032A8F3CF910895982F96959695A3
S113048096958770662309F443C0613009F084C0EF
S11304909130A1F028F09230F9F0933059F17EC0F8
S11304A04BB321E030E0B90102C0660F771F8A9593
S11304B0E2F7CB01842B8BBB80E0089548B321E0A5
S11304C030E0B90102C0660F771F8A95E2F7CB01CD
S11304D0842B88BB80E0089545B321E030E0B90166
S11304E002C0660F771F8A95E2F7CB01842B85BB88
S11304F080E0089542B321E030E0B90102C0660F04
S1130500771F8A95E2F7CB01842B82BB80E00895A4
S11305109130A9F028F0923009F1933071F140C084
S11305204BB321E030E0B90102C0660F771F8A9512
S1130530E2F7CB01809584238BBB80E0089548B318
S113054021E030E0B90102C0660F771F8A95E2F717
S1130550CB018095842388BB80E0089545B321E0D6
S113056030E0B90102C0660F771F8A95E2F7CB012C
S11305708095842385BB80E0089542B321E030E078
S1130580B90102C0660F771F8A95E2F7CB01809507
S1130590842382BB80E0089583E0089581E0089578
S11305A081E00895982F9695969596958770913049
S11305B0A1F028F09230F9F0933059F138C029B302
S11305C030E0A90102C0559547958A95E2F7CA0122
S11305D08170FB01808380E0089526B330E0A90197
S11305E002C0559547958A95E2F7CA018170FB01CF
S11305F0808380E0089523B330E0A90102C05595BB
S113060047958A95E2F7CA018170FB01808380E0F7
S1130610089520B330E0A90102C0559547958A9505
S1130620E2F7CA018170FB01808380E0089581E0D4
S11306300895982F96959695969587709130A1F088
S113064028F09230F9F0933059F138C04BB321E0DF
S113065030E0B90102C0660F771F8A95E2F7CB013B
S113066084278BBB80E0089548B321E030E0B901D2
S113067002C0660F771F8A95E2F7CB01842788BBF7
S113068080E0089545B321E030E0B90102C0660F6F
S1130690771F8A95E2F7CB01842785BB80E0089514
S11306A042B321E030E0B90102C0660F771F8A959A
S11306B0E2F7CB01842782BB80E0089581E00895AE
S11306C0813041F018F0823049F008958BB780648E
S11306D08BBF08958BB780688BBF08958BB78062FA
S11306E08BBF0895813049F120F0823009F449C06C
S11306F00895613069F028F0623089F06330B1F018
S1130700089585B78E7F85BF85B78D7F85BF089592
S113071085B7816085BF85B78D7F85BF089585B70F
S11307208E7F85BF85B7826085BF089585B7816058
S113073085BF85B7826085BF0895613069F028F070
S1130740623089F06330B1F0089585B78B7F85BF3F
S113075085B7877F85BF089585B7846085BF85B7D2
S1130760877F85BF089585B78B7F85BF85B78860F0
S113077085BF089585B7846085BF85B7886085BFC8
S11307800895623019F0633029F008C084B78F7B74
S113079084BF089584B7806484BF089584B78F7B31
S11307A084BF089562E080E00E94720362E081E009
S11307B00E94720362E082E00E9472030895813015
S11307C049F018F0823059F00895709385006093D1
S11307D08400089570938300609382000895709359
S11307E081006093800008951F920F920FB60F92BC
S11307F011242F933F934F935F936F937F938F9322
S11308009F93AF93BF93EF93FF93E0918400F09194
S11308108500309709F00995FF91EF91BF91AF9151
S11308209F918F917F916F915F914F913F912F9104
S11308300F900FBE0F901F9018951F920F920FB636
S11308400F9211242F933F934F935F936F937F9352
S11308508F939F93AF93BF93EF93FF93E0918200A5
S1130860F0918300309709F00995FF91EF91BF91C2
S1130870AF919F918F917F916F915F914F913F9134
S11308802F910F900FBE0F901F9018951F920F92EB
S11308900FB60F9211242F933F934F935F936F934F
S11308A07F938F939F93AF93BF93EF93FF93E091C5
S11308B08000F0918100309709F00995FF91EF9144
S11308C0BF91AF919F918F917F916F915F914F9164
S11308D03F912F910F900FBE0F901F90189581306C
S11308E069F028F0823089F08330B1F0089583B73D
S11308F08F7B83BF83B7877F83BF089583B780646B
S113090083BF83B7877F83BF089583B78F7B83BFFC
S113091083B7886083BF089583B7806483BF83B738
S1130920886083BF0895883040F493B7987F93BF5D
S113093093B7892B83BF84E0089580E00895909352
S11309408F0080938E0008951F920F920FB60F921E
S113095011242F933F934F935F936F937F938F93C0
S11309609F93AF93BF93EF93FF93E0918E00F09129
S11309708F00309709F00995FF91EF91BF91AF91E6
S11309809F918F917F916F915F914F913F912F91A3
S11309900F900FBE0F901F90189589B7816089BF83
S11309A008951F920F920FB60F9211242F933F9325
S11309B04F935F936F937F938F939F93AF93BF9363
S11309C0EF93FF93E0918C00F0918D00309709F044
S11309D00995FF91EF91BF91AF919F918F917F9175
S11309E06F915F914F913F912F910F900FBE0F9098
S11309F01F9018951F920F920FB60F9211242F93E8
S1130A003F934F935F936F937F938F939F93AF9392
S1130A10BF93EF93FF93E0918A00F0918B0030979E
S1130A2009F00995FF91EF91BF91AF919F918F913B
S1130A307F916F915F914F913F912F910F900FBED6
S1130A400F901F9018951F920F920FB60F921124BA
S1130A502F933F934F935F936F937F938F939F93C2
S1130A60AF93BF93EF93FF93E0918800F0918900D7
S1130A70309709F00995FF91EF91BF91AF919F9144
S1130A808F917F916F915F914F913F912F910F9033
S1130A900FBE0F901F9018951F920F920FB60F92D2
S1130AA011242F933F934F935F936F937F938F936F
S1130AB09F93AF93BF93EF93FF93E0918600F091E0
S1130AC08700309709F00995FF91EF91BF91AF919D
S1130AD09F918F917F916F915F914F913F912F9152
S1130AE00F900FBE0F901F901895FC0120812111CB
S1130AF006C081819281892B21F083E0089583E0EF
S1130B00089582E0089520919C0030919D004091C9
S1130B109E0050919F006091A0007091A10080916F
S1130B20A2009091A300A1E00E94120720939C00D0
S1130B3030939D0040939E0050939F006093A000CB
S1130B407093A1008093A2009093A300A4E60E9456
S1130B501E07B1F581E080939300209194003091B9
S1130B609500409196005091970060919800709183
S1130B70990080919A0090919B00A1E00E94120735
S1130B8020939400309395004093960050939700DF
S1130B90609398007093990080939A0090939B00BF
S1130BA010929C0010929D0010929E0010929F0043
S1130BB01092A0001092A1001092A2001092A30023
S1130BC0089580919200811111C08F5F80939200EB
S1130BD080E00E946F040E94CD0483E895E00E94A7
S1130BE09F0483E00E94930484E0089581E00895C3
S1130BF0FF920F931F93CF93DF93F82E8B01C82F8F
S1130C00D0E0CE01880F991F8C0F9D1F8C559F4FEC
S1130C100E9475058230B1F489E08F15A8F00115A2
S1130C201105A1F0CE01880F991FC80FD91FCC550B
S1130C30DF4FF80180819181A28188839983AA83FF
S1130C4085E005C081E003C081E001C081E0DF915F
S1130C50CF911F910F91FF900895CF93DF931F922F
S1130C60CDB7DEB7BE016F5F7F4F88E10E9465009C
S1130C708981811117C061E08AE00E943D0281E010
S1130C8090E0909391008093900006C0BE016F5F46
S1130C907F4F88E10E9465008091900090919100BF
S1130CA0892BA1F30F90DF91CF9108950E942D0617
S1130CB0809193008130D1F78091900090919100C0
S1130CC00197A1F73EC0C92DD0E0CE01880F991F2E
S1130CD08C0F9D1F8C559F4F0E947505823079F1B2
S1130CE0FE01EE0FFF1FEC0FFD1FEC55FF4FA08020
S1130CF02091940030919500409196005091970076
S1130D006091980070919900B12CC12CD12CE12CE8
S1130D10F12C00E010E080919A0090919B000E94D9
S1130D20B306A0E00E941E0751F4CE01880F991F5C
S1130D30C80FD91FCC55DF4FE981FA8109959394E7
S1130D4002C0992493948AE0891508F0BCCF1092CC
S1130D509300ACCF109291001092900060E08AE072
S1130D600E943D020895689401C0E8948F929F9276
S1130D70CF93DF930E94C106DF91CF919F908F9014
S1130D80089588249924F401E401B0E49F93AA27E8
S1130D909A158B049C04ED05FE05CF05D007A10729
S1130DA098F4AD2FDC2FCF2FFE2FE92D982C892E10
S1130DB0982F872F762F652F542F432F322F2227DA
S1130DC0B85031F7BF9127C01B2EBF91BB27220F0C
S1130DD0331F441F551F661F771F881F991F881CC8
S1130DE0991CEE1FFF1FCC1FDD1FAA1FBB1F8A14F7
S1130DF09B04EC05FD05CE05DF05A007B10748F00F
S1130E008A189B08EC09FD09CE09DF09A00BB10B78
S1130E1021601A94E1F62EF49401AF01BE01CD01D4
S1130E20000C08950024A7FD00942A0F301D401DD6
S1130E30501D601D701D801D901D08950024A7FD88
S1130E4000942A173005400550056005700580059B
S10B0E5090050895F894FFCF0A
S1130E580000000000000000000000000000000086
S1130E680000000000000000020002000000000072
S9030000FC
